:1070000055C000006EC000006CC000006AC00000E7
:1070100068C0000066C0000064C0000062C00000DC
:1070200060C000005EC00000BBC500005AC0000088
:1070300058C0000056C0000054C0000052C00000FC
:1070400050C000004EC000004CC000004AC000000C
:1070500048C0000046C0000044C0000042C000001C
:1070600040C000003EC000003CC000003AC000002C
:1070700038C0000036C0000034C0000032C000003C
:1070800030C000002EC000002CC000002AC000004C
:1070900028C0000026C0000024C0000022C000005C
:1070A00020C000001EC000001CC0000011241FBE34
:1070B000CFEFDAE0DEBFCDBF11E0A0E0B1E0E6E562
:1070C000FDE702C005900D92A236B107D9F711E095
:1070D000A2E6B1E001C01D92AF37B107E1F765D17B
:1070E00038C68ECF1DC09091F3004091F200392F29
:1070F00020E050E0422B532B4115510571F4909143
:10710000E8009B7F9093E80003C09EB3992351F061
:107110009091E80092FFF9CF02C09091F100815068
:10712000882309F7089530917101209170019091A1
:107130006F0180916E019093680180936901C9018C
:1071400090936A0180936B010895DF93CF9300D0F1
:1071500000D000D0CDB7DEB7809162018823D9F08E
:1071600080916C01843049F480916D01882339F459
:1071700080916E018F3F19F40EC0853061F08AE076
:107180008093010183E0809364018091EB00806231
:107190008093EB00E3C080916C01843009F455C00A
:1071A000853030F4813059F0833009F0D7C01FC0EA
:1071B000853009F4A0C0863009F0D0C0C3C08091EA
:1071C0006D01823008F0CAC0AEDF80916D01882366
:1071D00061F4809168019091690123E0FC012093A2
:1071E0005700E89507B600FCFDCF85E008C0809108
:1071F0006D01882311F0823029F495DF89E08093B6
:107200000101ACC0813009F0A9C080E090E0DC0150
:10721000FC0124912F3F69F0A093670190936901CD
:10722000809368018AE08093010185E08093640186
:1072300095C00196A11DB11D8030F0E79F07F0E0D9
:10724000AF07F0E0BF0721F789C080916D0183305F
:1072500029F581E08093630180917201909173011F
:10726000009709F07BC080916E01882361F42CE0C7
:1072700088E190E00FB6F894A895809360000FBE67
:10728000209360006BC08091710190917001909388
:107290006601809365011092000160C0882309F0A7
:1072A0005DC080916E018F3F09F058C080E090E092
:1072B000DC0133E025E0FC0130935700E89507B688
:1072C00000FCFDCF20935700E89507B600FCFDCFEA
:1072D00080589F4FAF4FBF4F803040E7940740E04A
:1072E000A40740E0B40739F781E180935700E8959F
:1072F0001092620133C0DE011196EEE5F1E083E009
:1073000001900D928150E1F7DE011496EBE5F1E07A
:1073100083E001900D928150E1F780916E01909190
:107320006D01992329F4FE01E80FF11D818107C049
:107330009130A1F4FE01BC97E80FF11D808180938C
:1073400074010CC080916D01833041F480916E0115
:10735000882321F480916F018093670126960FB6F0
:10736000F894DEBF0FBECDBFCF91DF91089584B7F3
:10737000877F84BF88E10FB6F894809360001092F5
:1073800060000FBE90E080E80FB6F8948093610033
:10739000909361000FBE81E085BF82E085BFE7C3A7
:1073A000D4D381E085BF15BE0895E1DF01C0B2D41A
:1073B000809100018823D9F7809163018823B9F770
:1073C000EFDFE0916501F09166010995AF92BF9200
:1073D000CF92DF92EF92FF920F931F93CF93DF93A1
:1073E00020917D0130917E013093730120937201D1
:1073F00020917801233009F4A7C1243030F42130E2
:1074000071F0223009F0DDC105C1253009F4BAC19F
:10741000253008F4AFC1263009F0D3C1BBC180913B
:10742000E800877F8093E80080916301882319F04A
:107430008CDE10926301809172019091730100972C
:1074400029F430C02EB3222309F4BBC12091E800F7
:1074500022FFF8CF2091F10020936C0101979093C7
:10746000730180937201EDE6F1E010C08091F100AC
:1074700081938091720190917301019790937301B0
:107480008093720121E0E237F20759F09091F30006
:107490008091F200D92ECC2490E08C299D29009770
:1074A00029F753DE80910101853009F0AFC080914A
:1074B000720190917301009721F482E080930101A1
:1074C000A5C08AE10FDE809168018F770BDE809185
:1074D000680190916901C0916A01D0916B01219678
:1074E000C81BD90B20916D01222309F08BC0D695C2
:1074F000C7959C014091670150E0DA01C90100E0A5
:10750000DD24D39445E0C42E13E042C07091F30013
:107510006091F200F72EEE2470E06E297F2961154C
:10752000710571F46091E8006B7F6093E80004C01E
:107530006EB3662309F445C16091E80062FFF8CF9D
:1075400021976091F100A62E6091F100B62EFC010A
:107550000501D0925700E89511240F5F0296A11DF6
:10756000B11D003411F0209799F4F901C092570031
:10757000E89507B600FCFDCF209751F0FC01109371
:107580005700E89507B600FCFDCF9C01AD0100E077
:10759000209709F0BBCF80916A0190916B01909385
:1075A00069018093680181E180935700E8952CC0C0
:1075B0009091F3008091F200192F00E090E0802B71
:1075C000912B009771F48091E8008B7F8093E80005
:1075D00004C08EB3882309F4F4C08091E80082FFD0
:1075E000F8CF6091F1008091680190916901A3D377
:1075F000809168019091690101969093690180934F
:10760000680121972097A1F680E16CDD8091E80068
:107610008B7F96C02091E800277F2093E80020917F
:10762000E80020FFC0C020910101293091F02A30EC
:1076300059F480916D01813039F490916801809105
:1076400069019093F10002C0809174018093F10070
:1076500074C0609168017091690100916A01109194
:107660006B010F5F1F4F061B170B20916D0122232B
:10767000A9F5169507959B014091670150E022C03E
:107680007091F3006091F200972F80E070E0682B1A
:10769000792B6032710549F46091E8006E7F609348
:1076A000E8006091E80060FF83C0F9016591749182
:1076B0006093F1007093F100015010402E5F3F4F36
:1076C0004F4F5F4F01151105D9F680916A019091D6
:1076D0006B0190936901809368012CC0223051F5B1
:1076E00026C09091F3008091F200E0E0EF0190E07D
:1076F0008C2B9D2B8032910549F48091E8008E7F80
:107700008093E8008091E80080FF57C0E090680116
:10771000F0906901C70107D38093F1000894E11C40
:10772000F11CF0926901E0926801015010400115CE
:107730001105B9F682E0809301018091E8008E7F07
:107740008093E80044D13DC08091E800877F80931A
:10775000E800809164018093F1001092F100109292
:10776000F1001092F100809101018093F1001092DC
:10777000F100E3CF8091E800877F8093E8001092CA
:107780006401E0CF8091E800877F8093E8008091DA
:1077900001015CCF8091E800877F8093E80082E060
:1077A00080930101CFCF2EB3222309F038CF09C037
:1077B0006EB3662309F075CF04C08EB3882309F039
:1077C000A1CFDF91CF911F910F91FF90EF90DF90AC
:1077D000CF90BF90AF900895923049F0933061F010
:1077E0009130C1F020E030E080E090E017C02BE164
:1077F00030E084E191E012C0882331F420912F0120
:1078000030E08FE291E00AC02091330130E083E361
:1078100091E004C022E130E082E091E0FA0191833E
:107820008083C90108951F93DF93CF9300D0CDB714
:10783000DEB7E7E7F1E08091F100819381E0EF3777
:10784000F807C9F78091770190917801953011F18F
:10785000963040F49130B9F0913070F0933009F0E7
:1078600079C011C0983009F44BC0993009F45AC05E
:10787000963009F06FC025C0803809F46CC082389A
:1078800009F068C068C0882309F465C0823009F037
:1078900061C061C0882309F05DC0109179018091B9
:1078A000E800877F8093E80092D08091E80080FF15
:1078B00061C01F7711F083E08EBB10681093E30066
:1078C0004AC08058823008F045C08091790190917B
:1078D0007A0160917B01AE014F5F5F4F7DDFBC019C
:1078E0000097C9F18091E800877F8093E800898143
:1078F0009A818BD08091E8008B7F8093E8002BC029
:10790000803841F58091E800877F8093E80080917E
:1079100075018093F1008091E8008E7F8093E800EC
:1079200056D019C08823B1F490917901923098F41F
:107930008091E800877F8093E8009093750147D09D
:1079400080917501882311F084E001C083E08EBB33
:1079500019D101C03BDD8091E80083FF10C0809108
:10796000EB0080628093EB008091E800877F80933A
:10797000E80005C08EB3882309F097CFECCF0F90B5
:107980000F90CF91DF911F910895EBEEF0E0808191
:1079900081608083EDEEF0E010826093EC00408324
:1079A0008091EE00881F8827881F08951092F400A8
:1079B0001092F0001092E800EDEEF0E080818D7FF3
:1079C0008083EBEEF0E080818E7F8083089580914C
:1079D000770187FF0CC003C08EB38823A9F0809184
:1079E000E80082FFF9CF8091E8008B7F07C080918B
:1079F000E80080FF06C08091E8008E7F8093E80059
:107A000008958EB3882399F70895482F592FFA01C6
:107A100080917D0190917E018617970718F4BC0133
:107A200040E038C061157105D9F78091E8008E7F7C
:107A30008093E800F5CF8091E80083FD3AC0809103
:107A4000E80082FD30C08EB38823A9F18091E80060
:107A500080FF20C09091F3008091F200392F20E048
:107A600090E0822B932B06C041914093F10061502E
:107A7000704001966115710519F080329105A0F3EF
:107A800041E08032910509F040E08091E8008E7F6E
:107A90008093E8006115710571F6442361F603C017
:107AA0008EB3882351F08091E80082FFF9CF80E007
:107AB000089581E0089582E0089582E0089563D0FA
:107AC0006AD01EBA109275018AE482BF80E189BD36
:107AD00089B5826089BD09B400FEFDCF8091D800D0
:107AE000982F9F779093D80080688093D8008091DA
:107AF000D70081608093D7008091D8008F7D8093DC
:107B0000D8008091E0008B7F8093E0008091E000BE
:107B10008E7F8093E0008091E1008E7F8093E10072
:107B20008091E20081608093E2008091E100877F94
:107B30008093E1008091E20088608093E200809170
:107B4000D80081608093D8000895B9DFE0EEF0E0BE
:107B5000808181608083E8EDF0E080818F77808391
:107B600019BC80818F7E8083109276010895A7DFF3
:107B7000E8EDF0E080818061808381E08093760190
:107B8000789408950895E8EDF0E080818E7F8083F9
:107B90001092E20008951092DA001092E100089528
:107BA0001F920F920FB60F9211242F933F934F9372
:107BB0005F936F937F938F939F93AF93BF93EF9355
:107BC000FF938091DA0080FF13C08091D80080FF7E
:107BD0000FC08091DA008E7F8093DA008091D90007
:107BE00080FF04C081E08EBBCDDF02C01EBACADFB9
:107BF0008091E10080FF1CC08091E20080FF18C0EE
:107C00008091E1008E7F8093E1008091E2008E7F81
:107C10008093E2008091E20080618093E200809195
:107C2000D80080628093D80019BC85E08EBBAADFA3
:107C30008091E10084FF29C08091E20084FF25C08B
:107C400080E189BD89B5826089BD09B400FEFDCFA0
:107C50008091D8008F7D8093D8008091E1008F7E45
:107C60008093E1008091E2008F7E8093E20080911A
:107C7000E20081608093E20080917501882311F019
:107C800084E001C083E08EBB7DDF8091E10083FF53
:107C900022C08091E20083FF1EC08091E100877FB7
:107CA0008093E10082E08EBB109275018091E1002B
:107CB0008E7F8093E1008091E2008E7F8093E200CE
:107CC0008091E20080618093E20070DE80E060E0FD
:107CD00042E25BDE57DF8091E10082FF0AC08091C3
:107CE000E20082FF06C08091E1008B7F8093E1007B
:107CF00049DFFF91EF91BF91AF919F918F917F915C
:107D00006F915F914F913F912F910F900FBE0F9008
:107D10001F9018958EB3882329F08091E80083FF87
:107D200001C081CD0895F999FECF92BD81BDF89A29
:107D3000992780B50895262FF999FECF1FBA92BDD5
:107D400081BD20BD0FB6F894FA9AF99A0FBE01963C
:067D50000895F894FFCF36
:107D560001021201100100000020EB03F42F0000C5
:107D66000001000109021B00010100803209040024
:107D76000000FE0102000921030000000C000104BE
:107D86000309042603410056005200200044004621
:107D9600005500200042006F006F0074006C006FF9
:107DA60000610064006500720000001E958720DCFB
:027DB600FB00D0
:040000030000700089
:00000001FF
